{
  "_format": "hh-sol-artifact-1",
  "contractName": "WavePortal",
  "sourceName": "contracts/WavePortal.sol",
  "abi": [
    {
      "inputs": [],
      "stateMutability": "payable",
      "type": "constructor"
    },
    {
      "anonymous": false,
      "inputs": [
        {
          "indexed": false,
          "internalType": "enum WavePortal.Reaction",
          "name": "reaction",
          "type": "uint8"
        },
        {
          "indexed": false,
          "internalType": "string",
          "name": "message",
          "type": "string"
        },
        {
          "indexed": true,
          "internalType": "address",
          "name": "from",
          "type": "address"
        },
        {
          "indexed": false,
          "internalType": "uint256",
          "name": "timestamp",
          "type": "uint256"
        }
      ],
      "name": "NewWave",
      "type": "event"
    },
    {
      "inputs": [],
      "name": "getAllWaves",
      "outputs": [
        {
          "components": [
            {
              "internalType": "enum WavePortal.Reaction",
              "name": "reaction",
              "type": "uint8"
            },
            {
              "internalType": "string",
              "name": "message",
              "type": "string"
            },
            {
              "internalType": "address",
              "name": "waver",
              "type": "address"
            },
            {
              "internalType": "uint256",
              "name": "timestamp",
              "type": "uint256"
            }
          ],
          "internalType": "struct WavePortal.Wave[]",
          "name": "",
          "type": "tuple[]"
        }
      ],
      "stateMutability": "view",
      "type": "function"
    },
    {
      "inputs": [],
      "name": "getTotalWaves",
      "outputs": [
        {
          "internalType": "uint256",
          "name": "",
          "type": "uint256"
        }
      ],
      "stateMutability": "view",
      "type": "function"
    },
    {
      "inputs": [
        {
          "internalType": "address",
          "name": "",
          "type": "address"
        }
      ],
      "name": "lastWavedAt",
      "outputs": [
        {
          "internalType": "uint256",
          "name": "",
          "type": "uint256"
        }
      ],
      "stateMutability": "view",
      "type": "function"
    },
    {
      "inputs": [
        {
          "internalType": "enum WavePortal.Reaction",
          "name": "_reaction",
          "type": "uint8"
        },
        {
          "internalType": "string",
          "name": "_message",
          "type": "string"
        }
      ],
      "name": "wave",
      "outputs": [],
      "stateMutability": "nonpayable",
      "type": "function"
    },
    {
      "inputs": [
        {
          "internalType": "uint256",
          "name": "",
          "type": "uint256"
        }
      ],
      "name": "waveList",
      "outputs": [
        {
          "internalType": "enum WavePortal.Reaction",
          "name": "reaction",
          "type": "uint8"
        },
        {
          "internalType": "string",
          "name": "message",
          "type": "string"
        },
        {
          "internalType": "address",
          "name": "waver",
          "type": "address"
        },
        {
          "internalType": "uint256",
          "name": "timestamp",
          "type": "uint256"
        }
      ],
      "stateMutability": "view",
      "type": "function"
    }
  ],
  "bytecode": "0x6080604052611251806100136000396000f3fe608060405234801561001057600080fd5b50600436106100575760003560e01c806348c29f141461005c5780638b9c3ecd146100785780639a2cdc08146100ab578063a42a4663146100c9578063bd43a908146100f9575b600080fd5b610076600480360381019061007191906109e2565b610117565b005b610092600480360381019061008d9190610a36565b61057d565b6040516100a29493929190610d9a565b60405180910390f35b6100b3610672565b6040516100c09190610e84565b60405180910390f35b6100e360048036038101906100de91906109b9565b61067f565b6040516100f09190610e84565b60405180910390f35b610101610697565b60405161010e9190610d78565b60405180910390f35b42610384600360003373ffffffffffffffffffffffffffffffffffffffff1673ffffffffffffffffffffffffffffffffffffffff168152602001908152602001600020546101659190610f71565b106101a5576040517f08c379a000000000000000000000000000000000000000000000000000000000815260040161019c90610e64565b60405180910390fd5b42600360003373ffffffffffffffffffffffffffffffffffffffff1673ffffffffffffffffffffffffffffffffffffffff1681526020019081526020016000208190555060016000808282546101fb9190610f71565b9250508190555060026040518060800160405280846002811115610248577f4e487b7100000000000000000000000000000000000000000000000000000000600052602160045260246000fd5b81526020018381526020013373ffffffffffffffffffffffffffffffffffffffff16815260200142815250908060018154018082558091505060019003906000526020600020906004020160009091909190915060008201518160000160006101000a81548160ff021916908360028111156102ed577f4e487b7100000000000000000000000000000000000000000000000000000000600052602160045260246000fd5b0217905550602082015181600101908051906020019061030e92919061086f565b5060408201518160020160006101000a81548173ffffffffffffffffffffffffffffffffffffffff021916908373ffffffffffffffffffffffffffffffffffffffff1602179055506060820151816003015550503373ffffffffffffffffffffffffffffffffffffffff167f2d6873fdbcd96c625e1fafa3267b0aab6e37f9be7d7a32baf9f6875c5e2984448383426040516103ac93929190610de6565b60405180910390a26000606460015442446103c79190610f71565b6103d19190610f71565b6103db919061109c565b905080600181905550600080600281111561041f577f4e487b7100000000000000000000000000000000000000000000000000000000600052602160045260246000fd5b846002811115610458577f4e487b7100000000000000000000000000000000000000000000000000000000600052602160045260246000fd5b141580610466575060148351115b90508080156104755750602882105b15610577576000655af3107a40009050478111156104c8576040517f08c379a00000000000000000000000000000000000000000000000000000000081526004016104bf90610e24565b60405180910390fd5b60003373ffffffffffffffffffffffffffffffffffffffff16826040516104ee90610d63565b60006040518083038185875af1925050503d806000811461052b576040519150601f19603f3d011682016040523d82523d6000602084013e610530565b606091505b5050905080610574576040517f08c379a000000000000000000000000000000000000000000000000000000000815260040161056b90610e44565b60405180910390fd5b50505b50505050565b6002818154811061058d57600080fd5b90600052602060002090600402016000915090508060000160009054906101000a900460ff16908060010180546105c39061106a565b80601f01602080910402602001604051908101604052809291908181526020018280546105ef9061106a565b801561063c5780601f106106115761010080835404028352916020019161063c565b820191906000526020600020905b81548152906001019060200180831161061f57829003601f168201915b5050505050908060020160009054906101000a900473ffffffffffffffffffffffffffffffffffffffff16908060030154905084565b6000600280549050905090565b60036020528060005260406000206000915090505481565b60606002805480602002602001604051908101604052809291908181526020016000905b8282101561086657838290600052602060002090600402016040518060800160405290816000820160009054906101000a900460ff166002811115610729577f4e487b7100000000000000000000000000000000000000000000000000000000600052602160045260246000fd5b6002811115610761577f4e487b7100000000000000000000000000000000000000000000000000000000600052602160045260246000fd5b81526020016001820180546107759061106a565b80601f01602080910402602001604051908101604052809291908181526020018280546107a19061106a565b80156107ee5780601f106107c3576101008083540402835291602001916107ee565b820191906000526020600020905b8154815290600101906020018083116107d157829003601f168201915b505050505081526020016002820160009054906101000a900473ffffffffffffffffffffffffffffffffffffffff1673ffffffffffffffffffffffffffffffffffffffff1673ffffffffffffffffffffffffffffffffffffffff168152602001600382015481525050815260200190600101906106bb565b50505050905090565b82805461087b9061106a565b90600052602060002090601f01602090048101928261089d57600085556108e4565b82601f106108b657805160ff19168380011785556108e4565b828001600101855582156108e4579182015b828111156108e35782518255916020019190600101906108c8565b5b5090506108f191906108f5565b5090565b5b8082111561090e5760008160009055506001016108f6565b5090565b600061092561092084610ed0565b610e9f565b90508281526020810184848401111561093d57600080fd5b610948848285611028565b509392505050565b60008135905061095f816111dd565b92915050565b600081359050610974816111f4565b92915050565b600082601f83011261098b57600080fd5b813561099b848260208601610912565b91505092915050565b6000813590506109b381611204565b92915050565b6000602082840312156109cb57600080fd5b60006109d984828501610950565b91505092915050565b600080604083850312156109f557600080fd5b6000610a0385828601610965565b925050602083013567ffffffffffffffff811115610a2057600080fd5b610a2c8582860161097a565b9150509250929050565b600060208284031215610a4857600080fd5b6000610a56848285016109a4565b91505092915050565b6000610a6b8383610ce2565b905092915050565b610a7c81610fc7565b82525050565b610a8b81610fc7565b82525050565b6000610a9c82610f10565b610aa68185610f33565b935083602082028501610ab885610f00565b8060005b85811015610af45784840389528151610ad58582610a5f565b9450610ae083610f26565b925060208a01995050600181019050610abc565b50829750879550505050505092915050565b610b0f81611016565b82525050565b610b1e81611016565b82525050565b6000610b2f82610f1b565b610b398185610f4f565b9350610b49818560208601611037565b610b52816111b8565b840191505092915050565b6000610b6882610f1b565b610b728185610f60565b9350610b82818560208601611037565b610b8b816111b8565b840191505092915050565b6000610ba3602f83610f60565b91507f436f6e74726163742066756e64732061726520696e73756666696369656e742060008301527f746f206772616e74207072697a652e00000000000000000000000000000000006020830152604082019050919050565b6000610c09602783610f60565b91507f4661696c656420746f207769746864726177206d6f6e65792066726f6d20636f60008301527f6e74726163742e000000000000000000000000000000000000000000000000006020830152604082019050919050565b6000610c6f602583610f60565b91507f57616974203135206d696e7574657320746f2073656e6420616e6f746865722060008301527f776176652e0000000000000000000000000000000000000000000000000000006020830152604082019050919050565b6000610cd5600083610f44565b9150600082019050919050565b6000608083016000830151610cfa6000860182610b06565b5060208301518482036020860152610d128282610b24565b9150506040830151610d276040860182610a73565b506060830151610d3a6060860182610d45565b508091505092915050565b610d4e8161100c565b82525050565b610d5d8161100c565b82525050565b6000610d6e82610cc8565b9150819050919050565b60006020820190508181036000830152610d928184610a91565b905092915050565b6000608082019050610daf6000830187610b15565b8181036020830152610dc18186610b5d565b9050610dd06040830185610a82565b610ddd6060830184610d54565b95945050505050565b6000606082019050610dfb6000830186610b15565b8181036020830152610e0d8185610b5d565b9050610e1c6040830184610d54565b949350505050565b60006020820190508181036000830152610e3d81610b96565b9050919050565b60006020820190508181036000830152610e5d81610bfc565b9050919050565b60006020820190508181036000830152610e7d81610c62565b9050919050565b6000602082019050610e996000830184610d54565b92915050565b6000604051905081810181811067ffffffffffffffff82111715610ec657610ec5611189565b5b8060405250919050565b600067ffffffffffffffff821115610eeb57610eea611189565b5b601f19601f8301169050602081019050919050565b6000819050602082019050919050565b600081519050919050565b600081519050919050565b6000602082019050919050565b600082825260208201905092915050565b600081905092915050565b600082825260208201905092915050565b600082825260208201905092915050565b6000610f7c8261100c565b9150610f878361100c565b9250827fffffffffffffffffffffffffffffffffffffffffffffffffffffffffffffffff03821115610fbc57610fbb6110cd565b5b828201905092915050565b6000610fd282610fec565b9050919050565b6000819050610fe7826111c9565b919050565b600073ffffffffffffffffffffffffffffffffffffffff82169050919050565b6000819050919050565b600061102182610fd9565b9050919050565b82818337600083830152505050565b60005b8381101561105557808201518184015260208101905061103a565b83811115611064576000848401525b50505050565b6000600282049050600182168061108257607f821691505b602082108114156110965761109561115a565b5b50919050565b60006110a78261100c565b91506110b28361100c565b9250826110c2576110c16110fc565b5b828206905092915050565b7f4e487b7100000000000000000000000000000000000000000000000000000000600052601160045260246000fd5b7f4e487b7100000000000000000000000000000000000000000000000000000000600052601260045260246000fd5b7f4e487b7100000000000000000000000000000000000000000000000000000000600052602160045260246000fd5b7f4e487b7100000000000000000000000000000000000000000000000000000000600052602260045260246000fd5b7f4e487b7100000000000000000000000000000000000000000000000000000000600052604160045260246000fd5b6000601f19601f8301169050919050565b600381106111da576111d961112b565b5b50565b6111e681610fc7565b81146111f157600080fd5b50565b6003811061120157600080fd5b50565b61120d8161100c565b811461121857600080fd5b5056fea2646970667358221220830094d8dfd3f5837dfa785ee4315ac4954beced22c2ffb46f21d5b3f0cd450264736f6c63430008000033",
  "linkReferences": {},
  "deployedLinkReferences": {}
}